{
  "_format": "hh-sol-artifact-1",
  "contractName": "Esurf",
  "sourceName": "contracts/Esurf.sol",
  "abi": [
    {
      "inputs": [
        {
          "internalType": "string",
          "name": "_name",
          "type": "string"
        },
        {
          "internalType": "uint256",
          "name": "_price",
          "type": "uint256"
        },
        {
          "internalType": "string",
          "name": "_description",
          "type": "string"
        },
        {
          "internalType": "enum Esurf.Category",
          "name": "_category",
          "type": "uint8"
        },
        {
          "internalType": "uint256",
          "name": "_stock",
          "type": "uint256"
        }
      ],
      "name": "addProduct",
      "outputs": [
        {
          "internalType": "uint256",
          "name": "",
          "type": "uint256"
        }
      ],
      "stateMutability": "nonpayable",
      "type": "function"
    },
    {
      "inputs": [
        {
          "internalType": "uint256",
          "name": "_productId",
          "type": "uint256"
        },
        {
          "internalType": "string",
          "name": "_text",
          "type": "string"
        }
      ],
      "name": "addReview",
      "outputs": [],
      "stateMutability": "nonpayable",
      "type": "function"
    },
    {
      "inputs": [
        {
          "internalType": "uint256",
          "name": "_productId",
          "type": "uint256"
        },
        {
          "internalType": "uint256",
          "name": "_quantity",
          "type": "uint256"
        }
      ],
      "name": "buyProduct",
      "outputs": [],
      "stateMutability": "payable",
      "type": "function"
    },
    {
      "inputs": [
        {
          "internalType": "string",
          "name": "_name",
          "type": "string"
        },
        {
          "internalType": "string",
          "name": "_delivery_address",
          "type": "string"
        }
      ],
      "name": "createOrEditUserProfile",
      "outputs": [],
      "stateMutability": "nonpayable",
      "type": "function"
    },
    {
      "inputs": [],
      "name": "getAllProducts",
      "outputs": [
        {
          "components": [
            {
              "internalType": "uint256",
              "name": "id",
              "type": "uint256"
            },
            {
              "internalType": "string",
              "name": "name",
              "type": "string"
            },
            {
              "internalType": "uint256",
              "name": "price",
              "type": "uint256"
            },
            {
              "internalType": "string",
              "name": "description",
              "type": "string"
            },
            {
              "internalType": "enum Esurf.Category",
              "name": "category",
              "type": "uint8"
            },
            {
              "internalType": "address",
              "name": "seller",
              "type": "address"
            },
            {
              "internalType": "uint256",
              "name": "stock",
              "type": "uint256"
            }
          ],
          "internalType": "struct Esurf.Product[]",
          "name": "",
          "type": "tuple[]"
        }
      ],
      "stateMutability": "view",
      "type": "function"
    },
    {
      "inputs": [
        {
          "internalType": "uint256",
          "name": "_productId",
          "type": "uint256"
        }
      ],
      "name": "getProductReviews",
      "outputs": [
        {
          "components": [
            {
              "internalType": "address",
              "name": "userAddress",
              "type": "address"
            },
            {
              "internalType": "string",
              "name": "text",
              "type": "string"
            },
            {
              "internalType": "uint256",
              "name": "timestamp",
              "type": "uint256"
            }
          ],
          "internalType": "struct Esurf.Review[]",
          "name": "",
          "type": "tuple[]"
        }
      ],
      "stateMutability": "view",
      "type": "function"
    },
    {
      "inputs": [],
      "name": "getUserProfile",
      "outputs": [
        {
          "components": [
            {
              "internalType": "string",
              "name": "name",
              "type": "string"
            },
            {
              "internalType": "string",
              "name": "delivery_address",
              "type": "string"
            },
            {
              "internalType": "uint256[]",
              "name": "product_ids",
              "type": "uint256[]"
            },
            {
              "internalType": "uint256[]",
              "name": "purchase_history",
              "type": "uint256[]"
            }
          ],
          "internalType": "struct Esurf.User",
          "name": "",
          "type": "tuple"
        }
      ],
      "stateMutability": "view",
      "type": "function"
    },
    {
      "inputs": [],
      "name": "productCount",
      "outputs": [
        {
          "internalType": "uint256",
          "name": "",
          "type": "uint256"
        }
      ],
      "stateMutability": "view",
      "type": "function"
    },
    {
      "inputs": [
        {
          "internalType": "uint256",
          "name": "",
          "type": "uint256"
        },
        {
          "internalType": "uint256",
          "name": "",
          "type": "uint256"
        }
      ],
      "name": "productReviews",
      "outputs": [
        {
          "internalType": "address",
          "name": "userAddress",
          "type": "address"
        },
        {
          "internalType": "string",
          "name": "text",
          "type": "string"
        },
        {
          "internalType": "uint256",
          "name": "timestamp",
          "type": "uint256"
        }
      ],
      "stateMutability": "view",
      "type": "function"
    },
    {
      "inputs": [
        {
          "internalType": "uint256",
          "name": "",
          "type": "uint256"
        }
      ],
      "name": "products",
      "outputs": [
        {
          "internalType": "uint256",
          "name": "id",
          "type": "uint256"
        },
        {
          "internalType": "string",
          "name": "name",
          "type": "string"
        },
        {
          "internalType": "uint256",
          "name": "price",
          "type": "uint256"
        },
        {
          "internalType": "string",
          "name": "description",
          "type": "string"
        },
        {
          "internalType": "enum Esurf.Category",
          "name": "category",
          "type": "uint8"
        },
        {
          "internalType": "address",
          "name": "seller",
          "type": "address"
        },
        {
          "internalType": "uint256",
          "name": "stock",
          "type": "uint256"
        }
      ],
      "stateMutability": "view",
      "type": "function"
    },
    {
      "inputs": [
        {
          "internalType": "address",
          "name": "",
          "type": "address"
        }
      ],
      "name": "users",
      "outputs": [
        {
          "internalType": "string",
          "name": "name",
          "type": "string"
        },
        {
          "internalType": "string",
          "name": "delivery_address",
          "type": "string"
        }
      ],
      "stateMutability": "view",
      "type": "function"
    }
  ],
  "bytecode": "0x6080604052348015600f57600080fd5b506125468061001f6000396000f3fe60806040526004361061009c5760003560e01c80635bb0c5d6116100645780635bb0c5d61461018b5780636f61c744146101b45780637acc0b20146101df578063a87430ba14610222578063e0f6ef8714610260578063f2943dce1461028b5761009c565b806302ee3a52146100a157806346a4237b146100cc5780634ee5a6a514610109578063537e18721461014657806353b628661461016f575b600080fd5b3480156100ad57600080fd5b506100b66102ca565b6040516100c39190611762565b60405180910390f35b3480156100d857600080fd5b506100f360048036038101906100ee91906117c4565b61056c565b6040516101009190611903565b60405180910390f35b34801561011557600080fd5b50610130600480360381019061012b9190611a7f565b6106d0565b60405161013d9190611b41565b60405180910390f35b34801561015257600080fd5b5061016d60048036038101906101689190611b5c565b61082e565b005b61018960048036038101906101849190611bd4565b61098c565b005b34801561019757600080fd5b506101b260048036038101906101ad9190611c14565b610bc6565b005b3480156101c057600080fd5b506101c9610ce4565b6040516101d69190611d97565b60405180910390f35b3480156101eb57600080fd5b50610206600480360381019061020191906117c4565b610f0e565b6040516102199796959493929190611e21565b60405180910390f35b34801561022e57600080fd5b5061024960048036038101906102449190611eca565b61108d565b604051610257929190611ef7565b60405180910390f35b34801561026c57600080fd5b506102756111c1565b6040516102829190611b41565b60405180910390f35b34801561029757600080fd5b506102b260048036038101906102ad9190611bd4565b6111c7565b6040516102c193929190611f2e565b60405180910390f35b6060600060035467ffffffffffffffff8111156102ea576102e961192f565b5b60405190808252806020026020018201604052801561032357816020015b61031061139b565b8152602001906001900390816103085790505b5090506000600190505b600354811161056457600160008281526020019081526020016000206040518060e00160405290816000820154815260200160018201805461036e90611f9b565b80601f016020809104026020016040519081016040528092919081815260200182805461039a90611f9b565b80156103e75780601f106103bc576101008083540402835291602001916103e7565b820191906000526020600020905b8154815290600101906020018083116103ca57829003601f168201915b505050505081526020016002820154815260200160038201805461040a90611f9b565b80601f016020809104026020016040519081016040528092919081815260200182805461043690611f9b565b80156104835780601f1061045857610100808354040283529160200191610483565b820191906000526020600020905b81548152906001019060200180831161046657829003601f168201915b505050505081526020016004820160009054906101000a900460ff1660048111156104b1576104b0611571565b5b60048111156104c3576104c2611571565b5b81526020016004820160019054906101000a900473ffffffffffffffffffffffffffffffffffffffff1673ffffffffffffffffffffffffffffffffffffffff1673ffffffffffffffffffffffffffffffffffffffff168152602001600582015481525050826001836105359190611ffb565b815181106105465761054561202f565b5b6020026020010181905250808061055c9061205e565b91505061032d565b508091505090565b606060026000838152602001908152602001600020805480602002602001604051908101604052809291908181526020016000905b828210156106c557838290600052602060002090600302016040518060600160405290816000820160009054906101000a900473ffffffffffffffffffffffffffffffffffffffff1673ffffffffffffffffffffffffffffffffffffffff1673ffffffffffffffffffffffffffffffffffffffff16815260200160018201805461062a90611f9b565b80601f016020809104026020016040519081016040528092919081815260200182805461065690611f9b565b80156106a35780601f10610678576101008083540402835291602001916106a3565b820191906000526020600020905b81548152906001019060200180831161068657829003601f168201915b50505050508152602001600282015481525050815260200190600101906105a1565b505050509050919050565b6000600360008154809291906106e59061205e565b91905055506040518060e00160405280600354815260200187815260200186815260200185815260200184600481111561072257610721611571565b5b81526020013373ffffffffffffffffffffffffffffffffffffffff1681526020018381525060016000600354815260200190815260200160002060008201518160000155602082015181600101908161077b9190612252565b5060408201518160020155606082015181600301908161079b9190612252565b5060808201518160040160006101000a81548160ff021916908360048111156107c7576107c6611571565b5b021790555060a08201518160040160016101000a81548173ffffffffffffffffffffffffffffffffffffffff021916908373ffffffffffffffffffffffffffffffffffffffff16021790555060c08201518160050155905050600354905095945050505050565b6040518060800160405280838152602001828152602001600067ffffffffffffffff8111156108605761085f61192f565b5b60405190808252806020026020018201604052801561088e5781602001602082028036833780820191505090505b508152602001600067ffffffffffffffff8111156108af576108ae61192f565b5b6040519080825280602002602001820160405280156108dd5781602001602082028036833780820191505090505b508152506000803373ffffffffffffffffffffffffffffffffffffffff1673ffffffffffffffffffffffffffffffffffffffff16815260200190815260200160002060008201518160000190816109349190612252565b50602082015181600101908161094a9190612252565b506040820151816002019080519060200190610967929190611400565b506060820151816003019080519060200190610984929190611400565b509050505050565b60006001600084815260200190815260200160002090506109b2348260020154846112b6565b81816005015410156109f9576040517f08c379a00000000000000000000000000000000000000000000000000000000081526004016109f090612370565b60405180910390fd5b818160020154610a099190612390565b341015610a4b576040517f08c379a0000000000000000000000000000000000000000000000000000000008152600401610a429061241e565b60405180910390fd5b81816005016000828254610a5f9190611ffb565b925050819055506000803373ffffffffffffffffffffffffffffffffffffffff1673ffffffffffffffffffffffffffffffffffffffff1681526020019081526020016000206003018390806001815401808255809150506001900390600052602060002001600090919091909150558060040160019054906101000a900473ffffffffffffffffffffffffffffffffffffffff1673ffffffffffffffffffffffffffffffffffffffff166108fc838360020154610b1c9190612390565b9081150290604051600060405180830381858888f19350505050158015610b47573d6000803e3d6000fd5b50818160020154610b589190612390565b341115610bc1573373ffffffffffffffffffffffffffffffffffffffff166108fc838360020154610b899190612390565b34610b949190611ffb565b9081150290604051600060405180830381858888f19350505050158015610bbf573d6000803e3d6000fd5b505b505050565b6000815111610c0a576040517f08c379a0000000000000000000000000000000000000000000000000000000008152600401610c019061248a565b60405180910390fd5b6002600083815260200190815260200160002060405180606001604052803373ffffffffffffffffffffffffffffffffffffffff16815260200183815260200142815250908060018154018082558091505060019003906000526020600020906003020160009091909190915060008201518160000160006101000a81548173ffffffffffffffffffffffffffffffffffffffff021916908373ffffffffffffffffffffffffffffffffffffffff1602179055506020820151816001019081610cd39190612252565b506040820151816002015550505050565b610cec61144d565b6000803373ffffffffffffffffffffffffffffffffffffffff1673ffffffffffffffffffffffffffffffffffffffff168152602001908152602001600020604051806080016040529081600082018054610d4590611f9b565b80601f0160208091040260200160405190810160405280929190818152602001828054610d7190611f9b565b8015610dbe5780601f10610d9357610100808354040283529160200191610dbe565b820191906000526020600020905b815481529060010190602001808311610da157829003601f168201915b50505050508152602001600182018054610dd790611f9b565b80601f0160208091040260200160405190810160405280929190818152602001828054610e0390611f9b565b8015610e505780601f10610e2557610100808354040283529160200191610e50565b820191906000526020600020905b815481529060010190602001808311610e3357829003601f168201915b5050505050815260200160028201805480602002602001604051908101604052809291908181526020018280548015610ea857602002820191906000526020600020905b815481526020019060010190808311610e94575b5050505050815260200160038201805480602002602001604051908101604052809291908181526020018280548015610f0057602002820191906000526020600020905b815481526020019060010190808311610eec575b505050505081525050905090565b6001602052806000526040600020600091509050806000015490806001018054610f3790611f9b565b80601f0160208091040260200160405190810160405280929190818152602001828054610f6390611f9b565b8015610fb05780601f10610f8557610100808354040283529160200191610fb0565b820191906000526020600020905b815481529060010190602001808311610f9357829003601f168201915b505050505090806002015490806003018054610fcb90611f9b565b80601f0160208091040260200160405190810160405280929190818152602001828054610ff790611f9b565b80156110445780601f1061101957610100808354040283529160200191611044565b820191906000526020600020905b81548152906001019060200180831161102757829003601f168201915b5050505050908060040160009054906101000a900460ff16908060040160019054906101000a900473ffffffffffffffffffffffffffffffffffffffff16908060050154905087565b60006020528060005260406000206000915090508060000180546110b090611f9b565b80601f01602080910402602001604051908101604052809291908181526020018280546110dc90611f9b565b80156111295780601f106110fe57610100808354040283529160200191611129565b820191906000526020600020905b81548152906001019060200180831161110c57829003601f168201915b50505050509080600101805461113e90611f9b565b80601f016020809104026020016040519081016040528092919081815260200182805461116a90611f9b565b80156111b75780601f1061118c576101008083540402835291602001916111b7565b820191906000526020600020905b81548152906001019060200180831161119a57829003601f168201915b5050505050905082565b60035481565b600260205281600052604060002081815481106111e357600080fd5b9060005260206000209060030201600091509150508060000160009054906101000a900473ffffffffffffffffffffffffffffffffffffffff169080600101805461122d90611f9b565b80601f016020809104026020016040519081016040528092919081815260200182805461125990611f9b565b80156112a65780601f1061127b576101008083540402835291602001916112a6565b820191906000526020600020905b81548152906001019060200180831161128957829003601f168201915b5050505050908060020154905083565b6113508383836040516024016112ce939291906124aa565b6040516020818303038152906040527fd1ed7a3c000000000000000000000000000000000000000000000000000000007bffffffffffffffffffffffffffffffffffffffffffffffffffffffff19166020820180517bffffffffffffffffffffffffffffffffffffffffffffffffffffffff8381831617835250505050611355565b505050565b61136c8161136461136f611390565b63ffffffff16565b50565b60006a636f6e736f6c652e6c6f679050600080835160208501845afa505050565b611475819050919050565b6040518060e0016040528060008152602001606081526020016000815260200160608152602001600060048111156113d6576113d5611571565b5b8152602001600073ffffffffffffffffffffffffffffffffffffffff168152602001600081525090565b82805482825590600052602060002090810192821561143c579160200282015b8281111561143b578251825591602001919060010190611420565b5b509050611449919061147f565b5090565b6040518060800160405280606081526020016060815260200160608152602001606081525090565b61147d6124e1565b565b5b80821115611498576000816000905550600101611480565b5090565b600081519050919050565b600082825260208201905092915050565b6000819050602082019050919050565b6000819050919050565b6114db816114c8565b82525050565b600081519050919050565b600082825260208201905092915050565b60005b8381101561151b578082015181840152602081019050611500565b60008484015250505050565b6000601f19601f8301169050919050565b6000611543826114e1565b61154d81856114ec565b935061155d8185602086016114fd565b61156681611527565b840191505092915050565b7f4e487b7100000000000000000000000000000000000000000000000000000000600052602160045260246000fd5b600581106115b1576115b0611571565b5b50565b60008190506115c2826115a0565b919050565b60006115d2826115b4565b9050919050565b6115e2816115c7565b82525050565b600073ffffffffffffffffffffffffffffffffffffffff82169050919050565b6000611613826115e8565b9050919050565b61162381611608565b82525050565b600060e08301600083015161164160008601826114d2565b50602083015184820360208601526116598282611538565b915050604083015161166e60408601826114d2565b50606083015184820360608601526116868282611538565b915050608083015161169b60808601826115d9565b5060a08301516116ae60a086018261161a565b5060c08301516116c160c08601826114d2565b508091505092915050565b60006116d88383611629565b905092915050565b6000602082019050919050565b60006116f88261149c565b61170281856114a7565b935083602082028501611714856114b8565b8060005b85811015611750578484038952815161173185826116cc565b945061173c836116e0565b925060208a01995050600181019050611718565b50829750879550505050505092915050565b6000602082019050818103600083015261177c81846116ed565b905092915050565b6000604051905090565b600080fd5b600080fd5b6117a1816114c8565b81146117ac57600080fd5b50565b6000813590506117be81611798565b92915050565b6000602082840312156117da576117d961178e565b5b60006117e8848285016117af565b91505092915050565b600081519050919050565b600082825260208201905092915050565b6000819050602082019050919050565b6000606083016000830151611835600086018261161a565b506020830151848203602086015261184d8282611538565b915050604083015161186260408601826114d2565b508091505092915050565b6000611879838361181d565b905092915050565b6000602082019050919050565b6000611899826117f1565b6118a381856117fc565b9350836020820285016118b58561180d565b8060005b858110156118f157848403895281516118d2858261186d565b94506118dd83611881565b925060208a019950506001810190506118b9565b50829750879550505050505092915050565b6000602082019050818103600083015261191d818461188e565b905092915050565b600080fd5b600080fd5b7f4e487b7100000000000000000000000000000000000000000000000000000000600052604160045260246000fd5b61196782611527565b810181811067ffffffffffffffff821117156119865761198561192f565b5b80604052505050565b6000611999611784565b90506119a5828261195e565b919050565b600067ffffffffffffffff8211156119c5576119c461192f565b5b6119ce82611527565b9050602081019050919050565b82818337600083830152505050565b60006119fd6119f8846119aa565b61198f565b905082815260208101848484011115611a1957611a1861192a565b5b611a248482856119db565b509392505050565b600082601f830112611a4157611a40611925565b5b8135611a518482602086016119ea565b91505092915050565b60058110611a6757600080fd5b50565b600081359050611a7981611a5a565b92915050565b600080600080600060a08688031215611a9b57611a9a61178e565b5b600086013567ffffffffffffffff811115611ab957611ab8611793565b5b611ac588828901611a2c565b9550506020611ad6888289016117af565b945050604086013567ffffffffffffffff811115611af757611af6611793565b5b611b0388828901611a2c565b9350506060611b1488828901611a6a565b9250506080611b25888289016117af565b9150509295509295909350565b611b3b816114c8565b82525050565b6000602082019050611b566000830184611b32565b92915050565b60008060408385031215611b7357611b7261178e565b5b600083013567ffffffffffffffff811115611b9157611b90611793565b5b611b9d85828601611a2c565b925050602083013567ffffffffffffffff811115611bbe57611bbd611793565b5b611bca85828601611a2c565b9150509250929050565b60008060408385031215611beb57611bea61178e565b5b6000611bf9858286016117af565b9250506020611c0a858286016117af565b9150509250929050565b60008060408385031215611c2b57611c2a61178e565b5b6000611c39858286016117af565b925050602083013567ffffffffffffffff811115611c5a57611c59611793565b5b611c6685828601611a2c565b9150509250929050565b600081519050919050565b600082825260208201905092915050565b6000819050602082019050919050565b6000611ca883836114d2565b60208301905092915050565b6000602082019050919050565b6000611ccc82611c70565b611cd68185611c7b565b9350611ce183611c8c565b8060005b83811015611d12578151611cf98882611c9c565b9750611d0483611cb4565b925050600181019050611ce5565b5085935050505092915050565b60006080830160008301518482036000860152611d3c8282611538565b91505060208301518482036020860152611d568282611538565b91505060408301518482036040860152611d708282611cc1565b91505060608301518482036060860152611d8a8282611cc1565b9150508091505092915050565b60006020820190508181036000830152611db18184611d1f565b905092915050565b600082825260208201905092915050565b6000611dd5826114e1565b611ddf8185611db9565b9350611def8185602086016114fd565b611df881611527565b840191505092915050565b611e0c816115c7565b82525050565b611e1b81611608565b82525050565b600060e082019050611e36600083018a611b32565b8181036020830152611e488189611dca565b9050611e576040830188611b32565b8181036060830152611e698187611dca565b9050611e786080830186611e03565b611e8560a0830185611e12565b611e9260c0830184611b32565b98975050505050505050565b611ea781611608565b8114611eb257600080fd5b50565b600081359050611ec481611e9e565b92915050565b600060208284031215611ee057611edf61178e565b5b6000611eee84828501611eb5565b91505092915050565b60006040820190508181036000830152611f118185611dca565b90508181036020830152611f258184611dca565b90509392505050565b6000606082019050611f436000830186611e12565b8181036020830152611f558185611dca565b9050611f646040830184611b32565b949350505050565b7f4e487b7100000000000000000000000000000000000000000000000000000000600052602260045260246000fd5b60006002820490506001821680611fb357607f821691505b602082108103611fc657611fc5611f6c565b5b50919050565b7f4e487b7100000000000000000000000000000000000000000000000000000000600052601160045260246000fd5b6000612006826114c8565b9150612011836114c8565b925082820390508181111561202957612028611fcc565b5b92915050565b7f4e487b7100000000000000000000000000000000000000000000000000000000600052603260045260246000fd5b6000612069826114c8565b91507fffffffffffffffffffffffffffffffffffffffffffffffffffffffffffffffff820361209b5761209a611fcc565b5b600182019050919050565b60008190508160005260206000209050919050565b60006020601f8301049050919050565b600082821b905092915050565b6000600883026121087fffffffffffffffffffffffffffffffffffffffffffffffffffffffffffffffff826120cb565b61211286836120cb565b95508019841693508086168417925050509392505050565b6000819050919050565b600061214f61214a612145846114c8565b61212a565b6114c8565b9050919050565b6000819050919050565b61216983612134565b61217d61217582612156565b8484546120d8565b825550505050565b600090565b612192612185565b61219d818484612160565b505050565b5b818110156121c1576121b660008261218a565b6001810190506121a3565b5050565b601f821115612206576121d7816120a6565b6121e0846120bb565b810160208510156121ef578190505b6122036121fb856120bb565b8301826121a2565b50505b505050565b600082821c905092915050565b60006122296000198460080261220b565b1980831691505092915050565b60006122428383612218565b9150826002028217905092915050565b61225b826114e1565b67ffffffffffffffff8111156122745761227361192f565b5b61227e8254611f9b565b6122898282856121c5565b600060209050601f8311600181146122bc57600084156122aa578287015190505b6122b48582612236565b86555061231c565b601f1984166122ca866120a6565b60005b828110156122f2578489015182556001820191506020850194506020810190506122cd565b8683101561230f578489015161230b601f891682612218565b8355505b6001600288020188555050505b505050505050565b7f6f7574206f662073746f636b0000000000000000000000000000000000000000600082015250565b600061235a600c83611db9565b915061236582612324565b602082019050919050565b600060208201905081810360008301526123898161234d565b9050919050565b600061239b826114c8565b91506123a6836114c8565b92508282026123b4816114c8565b915082820484148315176123cb576123ca611fcc565b5b5092915050565b7f6e6f7420656e6f7567682066756e647300000000000000000000000000000000600082015250565b6000612408601083611db9565b9150612413826123d2565b602082019050919050565b60006020820190508181036000830152612437816123fb565b9050919050565b7f746578742063616e6e6f7420626520656d707479000000000000000000000000600082015250565b6000612474601483611db9565b915061247f8261243e565b602082019050919050565b600060208201905081810360008301526124a381612467565b9050919050565b60006060820190506124bf6000830186611b32565b6124cc6020830185611b32565b6124d96040830184611b32565b949350505050565b7f4e487b7100000000000000000000000000000000000000000000000000000000600052605160045260246000fdfea26469706673582212209e0a6a15b8bf08d1804aa0d9686d0ca1b5cd1ab1f606e6323c7e55660f6d92f464736f6c634300081b0033",
  "linkReferences": {},
  "deployedLinkReferences": {}
}