{
  "_format": "hh-sol-artifact-1",
  "contractName": "Esurf",
  "sourceName": "contracts/Esurf.sol",
  "abi": [
    {
      "inputs": [
        {
          "internalType": "string",
          "name": "_name",
          "type": "string"
        },
        {
          "internalType": "uint256",
          "name": "_price",
          "type": "uint256"
        },
        {
          "internalType": "string",
          "name": "_description",
          "type": "string"
        },
        {
          "internalType": "enum Esurf.Category",
          "name": "_category",
          "type": "uint8"
        },
        {
          "internalType": "uint256",
          "name": "_stock",
          "type": "uint256"
        },
        {
          "internalType": "string",
          "name": "_image",
          "type": "string"
        }
      ],
      "name": "addProduct",
      "outputs": [
        {
          "internalType": "uint256",
          "name": "",
          "type": "uint256"
        }
      ],
      "stateMutability": "nonpayable",
      "type": "function"
    },
    {
      "inputs": [
        {
          "internalType": "uint256",
          "name": "_productId",
          "type": "uint256"
        },
        {
          "internalType": "string",
          "name": "_text",
          "type": "string"
        }
      ],
      "name": "addReview",
      "outputs": [],
      "stateMutability": "nonpayable",
      "type": "function"
    },
    {
      "inputs": [
        {
          "internalType": "uint256",
          "name": "_productId",
          "type": "uint256"
        },
        {
          "internalType": "uint256",
          "name": "_quantity",
          "type": "uint256"
        }
      ],
      "name": "buyProduct",
      "outputs": [],
      "stateMutability": "payable",
      "type": "function"
    },
    {
      "inputs": [
        {
          "internalType": "string",
          "name": "_name",
          "type": "string"
        },
        {
          "internalType": "string",
          "name": "_delivery_address",
          "type": "string"
        }
      ],
      "name": "createOrEditUserProfile",
      "outputs": [],
      "stateMutability": "nonpayable",
      "type": "function"
    },
    {
      "inputs": [],
      "name": "getAllProducts",
      "outputs": [
        {
          "components": [
            {
              "internalType": "uint256",
              "name": "id",
              "type": "uint256"
            },
            {
              "internalType": "string",
              "name": "name",
              "type": "string"
            },
            {
              "internalType": "uint256",
              "name": "price",
              "type": "uint256"
            },
            {
              "internalType": "string",
              "name": "description",
              "type": "string"
            },
            {
              "internalType": "enum Esurf.Category",
              "name": "category",
              "type": "uint8"
            },
            {
              "internalType": "address",
              "name": "seller",
              "type": "address"
            },
            {
              "internalType": "uint256",
              "name": "stock",
              "type": "uint256"
            },
            {
              "internalType": "string",
              "name": "image",
              "type": "string"
            }
          ],
          "internalType": "struct Esurf.Product[]",
          "name": "",
          "type": "tuple[]"
        }
      ],
      "stateMutability": "view",
      "type": "function"
    },
    {
      "inputs": [
        {
          "internalType": "uint256",
          "name": "_productId",
          "type": "uint256"
        }
      ],
      "name": "getProductReviews",
      "outputs": [
        {
          "components": [
            {
              "internalType": "address",
              "name": "userAddress",
              "type": "address"
            },
            {
              "internalType": "string",
              "name": "text",
              "type": "string"
            },
            {
              "internalType": "uint256",
              "name": "timestamp",
              "type": "uint256"
            }
          ],
          "internalType": "struct Esurf.Review[]",
          "name": "",
          "type": "tuple[]"
        }
      ],
      "stateMutability": "view",
      "type": "function"
    },
    {
      "inputs": [],
      "name": "getUserProfile",
      "outputs": [
        {
          "components": [
            {
              "internalType": "string",
              "name": "name",
              "type": "string"
            },
            {
              "internalType": "string",
              "name": "delivery_address",
              "type": "string"
            },
            {
              "internalType": "uint256[]",
              "name": "product_ids",
              "type": "uint256[]"
            },
            {
              "internalType": "uint256[]",
              "name": "purchase_history",
              "type": "uint256[]"
            }
          ],
          "internalType": "struct Esurf.User",
          "name": "",
          "type": "tuple"
        }
      ],
      "stateMutability": "view",
      "type": "function"
    },
    {
      "inputs": [],
      "name": "productCount",
      "outputs": [
        {
          "internalType": "uint256",
          "name": "",
          "type": "uint256"
        }
      ],
      "stateMutability": "view",
      "type": "function"
    },
    {
      "inputs": [
        {
          "internalType": "uint256",
          "name": "",
          "type": "uint256"
        },
        {
          "internalType": "uint256",
          "name": "",
          "type": "uint256"
        }
      ],
      "name": "productReviews",
      "outputs": [
        {
          "internalType": "address",
          "name": "userAddress",
          "type": "address"
        },
        {
          "internalType": "string",
          "name": "text",
          "type": "string"
        },
        {
          "internalType": "uint256",
          "name": "timestamp",
          "type": "uint256"
        }
      ],
      "stateMutability": "view",
      "type": "function"
    },
    {
      "inputs": [
        {
          "internalType": "uint256",
          "name": "",
          "type": "uint256"
        }
      ],
      "name": "products",
      "outputs": [
        {
          "internalType": "uint256",
          "name": "id",
          "type": "uint256"
        },
        {
          "internalType": "string",
          "name": "name",
          "type": "string"
        },
        {
          "internalType": "uint256",
          "name": "price",
          "type": "uint256"
        },
        {
          "internalType": "string",
          "name": "description",
          "type": "string"
        },
        {
          "internalType": "enum Esurf.Category",
          "name": "category",
          "type": "uint8"
        },
        {
          "internalType": "address",
          "name": "seller",
          "type": "address"
        },
        {
          "internalType": "uint256",
          "name": "stock",
          "type": "uint256"
        },
        {
          "internalType": "string",
          "name": "image",
          "type": "string"
        }
      ],
      "stateMutability": "view",
      "type": "function"
    },
    {
      "inputs": [
        {
          "internalType": "address",
          "name": "",
          "type": "address"
        }
      ],
      "name": "users",
      "outputs": [
        {
          "internalType": "string",
          "name": "name",
          "type": "string"
        },
        {
          "internalType": "string",
          "name": "delivery_address",
          "type": "string"
        }
      ],
      "stateMutability": "view",
      "type": "function"
    }
  ],
  "bytecode": "0x6080604052348015600f57600080fd5b506126ed8061001f6000396000f3fe60806040526004361061009c5760003560e01c80636f61c744116100645780636f61c744146101775780637acc0b20146101a2578063a87430ba146101e6578063d4b8d70814610224578063e0f6ef8714610261578063f2943dce1461028c5761009c565b806302ee3a52146100a157806346a4237b146100cc578063537e18721461010957806353b62866146101325780635bb0c5d61461014e575b600080fd5b3480156100ad57600080fd5b506100b66102cb565b6040516100c391906118c5565b60405180910390f35b3480156100d857600080fd5b506100f360048036038101906100ee9190611927565b610600565b6040516101009190611a66565b60405180910390f35b34801561011557600080fd5b50610130600480360381019061012b9190611bbd565b610764565b005b61014c60048036038101906101479190611c35565b6108c2565b005b34801561015a57600080fd5b5061017560048036038101906101709190611c75565b610afc565b005b34801561018357600080fd5b5061018c610c1a565b6040516101999190611df8565b60405180910390f35b3480156101ae57600080fd5b506101c960048036038101906101c49190611927565b610e44565b6040516101dd989796959493929190611e91565b60405180910390f35b3480156101f257600080fd5b5061020d60048036038101906102089190611f50565b611051565b60405161021b929190611f7d565b60405180910390f35b34801561023057600080fd5b5061024b60048036038101906102469190611fd9565b611185565b60405161025891906120ba565b60405180910390f35b34801561026d57600080fd5b50610276611301565b60405161028391906120ba565b60405180910390f35b34801561029857600080fd5b506102b360048036038101906102ae9190611c35565b611307565b6040516102c2939291906120d5565b60405180910390f35b6060600060035467ffffffffffffffff8111156102eb576102ea611a92565b5b60405190808252806020026020018201604052801561032457816020015b6103116114db565b8152602001906001900390816103095790505b5090506000600190505b60035481116105f85760016000828152602001908152602001600020604051806101000160405290816000820154815260200160018201805461037090612142565b80601f016020809104026020016040519081016040528092919081815260200182805461039c90612142565b80156103e95780601f106103be576101008083540402835291602001916103e9565b820191906000526020600020905b8154815290600101906020018083116103cc57829003601f168201915b505050505081526020016002820154815260200160038201805461040c90612142565b80601f016020809104026020016040519081016040528092919081815260200182805461043890612142565b80156104855780601f1061045a57610100808354040283529160200191610485565b820191906000526020600020905b81548152906001019060200180831161046857829003601f168201915b505050505081526020016004820160009054906101000a900460ff1660048111156104b3576104b26116b9565b5b60048111156104c5576104c46116b9565b5b81526020016004820160019054906101000a900473ffffffffffffffffffffffffffffffffffffffff1673ffffffffffffffffffffffffffffffffffffffff1673ffffffffffffffffffffffffffffffffffffffff1681526020016005820154815260200160068201805461053990612142565b80601f016020809104026020016040519081016040528092919081815260200182805461056590612142565b80156105b25780601f10610587576101008083540402835291602001916105b2565b820191906000526020600020905b81548152906001019060200180831161059557829003601f168201915b505050505081525050826001836105c991906121a2565b815181106105da576105d96121d6565b5b602002602001018190525080806105f090612205565b91505061032e565b508091505090565b606060026000838152602001908152602001600020805480602002602001604051908101604052809291908181526020016000905b8282101561075957838290600052602060002090600302016040518060600160405290816000820160009054906101000a900473ffffffffffffffffffffffffffffffffffffffff1673ffffffffffffffffffffffffffffffffffffffff1673ffffffffffffffffffffffffffffffffffffffff1681526020016001820180546106be90612142565b80601f01602080910402602001604051908101604052809291908181526020018280546106ea90612142565b80156107375780601f1061070c57610100808354040283529160200191610737565b820191906000526020600020905b81548152906001019060200180831161071a57829003601f168201915b5050505050815260200160028201548152505081526020019060010190610635565b505050509050919050565b6040518060800160405280838152602001828152602001600067ffffffffffffffff81111561079657610795611a92565b5b6040519080825280602002602001820160405280156107c45781602001602082028036833780820191505090505b508152602001600067ffffffffffffffff8111156107e5576107e4611a92565b5b6040519080825280602002602001820160405280156108135781602001602082028036833780820191505090505b508152506000803373ffffffffffffffffffffffffffffffffffffffff1673ffffffffffffffffffffffffffffffffffffffff168152602001908152602001600020600082015181600001908161086a91906123f9565b50602082015181600101908161088091906123f9565b50604082015181600201908051906020019061089d929190611548565b5060608201518160030190805190602001906108ba929190611548565b509050505050565b60006001600084815260200190815260200160002090506108e8348260020154846113f6565b818160050154101561092f576040517f08c379a000000000000000000000000000000000000000000000000000000000815260040161092690612517565b60405180910390fd5b81816002015461093f9190612537565b341015610981576040517f08c379a0000000000000000000000000000000000000000000000000000000008152600401610978906125c5565b60405180910390fd5b8181600501600082825461099591906121a2565b925050819055506000803373ffffffffffffffffffffffffffffffffffffffff1673ffffffffffffffffffffffffffffffffffffffff1681526020019081526020016000206003018390806001815401808255809150506001900390600052602060002001600090919091909150558060040160019054906101000a900473ffffffffffffffffffffffffffffffffffffffff1673ffffffffffffffffffffffffffffffffffffffff166108fc838360020154610a529190612537565b9081150290604051600060405180830381858888f19350505050158015610a7d573d6000803e3d6000fd5b50818160020154610a8e9190612537565b341115610af7573373ffffffffffffffffffffffffffffffffffffffff166108fc838360020154610abf9190612537565b34610aca91906121a2565b9081150290604051600060405180830381858888f19350505050158015610af5573d6000803e3d6000fd5b505b505050565b6000815111610b40576040517f08c379a0000000000000000000000000000000000000000000000000000000008152600401610b3790612631565b60405180910390fd5b6002600083815260200190815260200160002060405180606001604052803373ffffffffffffffffffffffffffffffffffffffff16815260200183815260200142815250908060018154018082558091505060019003906000526020600020906003020160009091909190915060008201518160000160006101000a81548173ffffffffffffffffffffffffffffffffffffffff021916908373ffffffffffffffffffffffffffffffffffffffff1602179055506020820151816001019081610c0991906123f9565b506040820151816002015550505050565b610c22611595565b6000803373ffffffffffffffffffffffffffffffffffffffff1673ffffffffffffffffffffffffffffffffffffffff168152602001908152602001600020604051806080016040529081600082018054610c7b90612142565b80601f0160208091040260200160405190810160405280929190818152602001828054610ca790612142565b8015610cf45780601f10610cc957610100808354040283529160200191610cf4565b820191906000526020600020905b815481529060010190602001808311610cd757829003601f168201915b50505050508152602001600182018054610d0d90612142565b80601f0160208091040260200160405190810160405280929190818152602001828054610d3990612142565b8015610d865780601f10610d5b57610100808354040283529160200191610d86565b820191906000526020600020905b815481529060010190602001808311610d6957829003601f168201915b5050505050815260200160028201805480602002602001604051908101604052809291908181526020018280548015610dde57602002820191906000526020600020905b815481526020019060010190808311610dca575b5050505050815260200160038201805480602002602001604051908101604052809291908181526020018280548015610e3657602002820191906000526020600020905b815481526020019060010190808311610e22575b505050505081525050905090565b6001602052806000526040600020600091509050806000015490806001018054610e6d90612142565b80601f0160208091040260200160405190810160405280929190818152602001828054610e9990612142565b8015610ee65780601f10610ebb57610100808354040283529160200191610ee6565b820191906000526020600020905b815481529060010190602001808311610ec957829003601f168201915b505050505090806002015490806003018054610f0190612142565b80601f0160208091040260200160405190810160405280929190818152602001828054610f2d90612142565b8015610f7a5780601f10610f4f57610100808354040283529160200191610f7a565b820191906000526020600020905b815481529060010190602001808311610f5d57829003601f168201915b5050505050908060040160009054906101000a900460ff16908060040160019054906101000a900473ffffffffffffffffffffffffffffffffffffffff1690806005015490806006018054610fce90612142565b80601f0160208091040260200160405190810160405280929190818152602001828054610ffa90612142565b80156110475780601f1061101c57610100808354040283529160200191611047565b820191906000526020600020905b81548152906001019060200180831161102a57829003601f168201915b5050505050905088565b600060205280600052604060002060009150905080600001805461107490612142565b80601f01602080910402602001604051908101604052809291908181526020018280546110a090612142565b80156110ed5780601f106110c2576101008083540402835291602001916110ed565b820191906000526020600020905b8154815290600101906020018083116110d057829003601f168201915b50505050509080600101805461110290612142565b80601f016020809104026020016040519081016040528092919081815260200182805461112e90612142565b801561117b5780601f106111505761010080835404028352916020019161117b565b820191906000526020600020905b81548152906001019060200180831161115e57829003601f168201915b5050505050905082565b60006003600081548092919061119a90612205565b919050555060405180610100016040528060035481526020018881526020018781526020018681526020018560048111156111d8576111d76116b9565b5b81526020013373ffffffffffffffffffffffffffffffffffffffff1681526020018481526020018381525060016000600354815260200190815260200160002060008201518160000155602082015181600101908161123791906123f9565b5060408201518160020155606082015181600301908161125791906123f9565b5060808201518160040160006101000a81548160ff02191690836004811115611283576112826116b9565b5b021790555060a08201518160040160016101000a81548173ffffffffffffffffffffffffffffffffffffffff021916908373ffffffffffffffffffffffffffffffffffffffff16021790555060c0820151816005015560e08201518160060190816112ee91906123f9565b5090505060035490509695505050505050565b60035481565b6002602052816000526040600020818154811061132357600080fd5b9060005260206000209060030201600091509150508060000160009054906101000a900473ffffffffffffffffffffffffffffffffffffffff169080600101805461136d90612142565b80601f016020809104026020016040519081016040528092919081815260200182805461139990612142565b80156113e65780601f106113bb576101008083540402835291602001916113e6565b820191906000526020600020905b8154815290600101906020018083116113c957829003601f168201915b5050505050908060020154905083565b61149083838360405160240161140e93929190612651565b6040516020818303038152906040527fd1ed7a3c000000000000000000000000000000000000000000000000000000007bffffffffffffffffffffffffffffffffffffffffffffffffffffffff19166020820180517bffffffffffffffffffffffffffffffffffffffffffffffffffffffff8381831617835250505050611495565b505050565b6114ac816114a46114af6114d0565b63ffffffff16565b50565b60006a636f6e736f6c652e6c6f679050600080835160208501845afa505050565b6115bd819050919050565b6040518061010001604052806000815260200160608152602001600081526020016060815260200160006004811115611517576115166116b9565b5b8152602001600073ffffffffffffffffffffffffffffffffffffffff16815260200160008152602001606081525090565b828054828255906000526020600020908101928215611584579160200282015b82811115611583578251825591602001919060010190611568565b5b50905061159191906115c7565b5090565b6040518060800160405280606081526020016060815260200160608152602001606081525090565b6115c5612688565b565b5b808211156115e05760008160009055506001016115c8565b5090565b600081519050919050565b600082825260208201905092915050565b6000819050602082019050919050565b6000819050919050565b61162381611610565b82525050565b600081519050919050565b600082825260208201905092915050565b60005b83811015611663578082015181840152602081019050611648565b60008484015250505050565b6000601f19601f8301169050919050565b600061168b82611629565b6116958185611634565b93506116a5818560208601611645565b6116ae8161166f565b840191505092915050565b7f4e487b7100000000000000000000000000000000000000000000000000000000600052602160045260246000fd5b600581106116f9576116f86116b9565b5b50565b600081905061170a826116e8565b919050565b600061171a826116fc565b9050919050565b61172a8161170f565b82525050565b600073ffffffffffffffffffffffffffffffffffffffff82169050919050565b600061175b82611730565b9050919050565b61176b81611750565b82525050565b60006101008301600083015161178a600086018261161a565b50602083015184820360208601526117a28282611680565b91505060408301516117b7604086018261161a565b50606083015184820360608601526117cf8282611680565b91505060808301516117e46080860182611721565b5060a08301516117f760a0860182611762565b5060c083015161180a60c086018261161a565b5060e083015184820360e08601526118228282611680565b9150508091505092915050565b600061183b8383611771565b905092915050565b6000602082019050919050565b600061185b826115e4565b61186581856115ef565b93508360208202850161187785611600565b8060005b858110156118b35784840389528151611894858261182f565b945061189f83611843565b925060208a0199505060018101905061187b565b50829750879550505050505092915050565b600060208201905081810360008301526118df8184611850565b905092915050565b6000604051905090565b600080fd5b600080fd5b61190481611610565b811461190f57600080fd5b50565b600081359050611921816118fb565b92915050565b60006020828403121561193d5761193c6118f1565b5b600061194b84828501611912565b91505092915050565b600081519050919050565b600082825260208201905092915050565b6000819050602082019050919050565b60006060830160008301516119986000860182611762565b50602083015184820360208601526119b08282611680565b91505060408301516119c5604086018261161a565b508091505092915050565b60006119dc8383611980565b905092915050565b6000602082019050919050565b60006119fc82611954565b611a06818561195f565b935083602082028501611a1885611970565b8060005b85811015611a545784840389528151611a3585826119d0565b9450611a40836119e4565b925060208a01995050600181019050611a1c565b50829750879550505050505092915050565b60006020820190508181036000830152611a8081846119f1565b905092915050565b600080fd5b600080fd5b7f4e487b7100000000000000000000000000000000000000000000000000000000600052604160045260246000fd5b611aca8261166f565b810181811067ffffffffffffffff82111715611ae957611ae8611a92565b5b80604052505050565b6000611afc6118e7565b9050611b088282611ac1565b919050565b600067ffffffffffffffff821115611b2857611b27611a92565b5b611b318261166f565b9050602081019050919050565b82818337600083830152505050565b6000611b60611b5b84611b0d565b611af2565b905082815260208101848484011115611b7c57611b7b611a8d565b5b611b87848285611b3e565b509392505050565b600082601f830112611ba457611ba3611a88565b5b8135611bb4848260208601611b4d565b91505092915050565b60008060408385031215611bd457611bd36118f1565b5b600083013567ffffffffffffffff811115611bf257611bf16118f6565b5b611bfe85828601611b8f565b925050602083013567ffffffffffffffff811115611c1f57611c1e6118f6565b5b611c2b85828601611b8f565b9150509250929050565b60008060408385031215611c4c57611c4b6118f1565b5b6000611c5a85828601611912565b9250506020611c6b85828601611912565b9150509250929050565b60008060408385031215611c8c57611c8b6118f1565b5b6000611c9a85828601611912565b925050602083013567ffffffffffffffff811115611cbb57611cba6118f6565b5b611cc785828601611b8f565b9150509250929050565b600081519050919050565b600082825260208201905092915050565b6000819050602082019050919050565b6000611d09838361161a565b60208301905092915050565b6000602082019050919050565b6000611d2d82611cd1565b611d378185611cdc565b9350611d4283611ced565b8060005b83811015611d73578151611d5a8882611cfd565b9750611d6583611d15565b925050600181019050611d46565b5085935050505092915050565b60006080830160008301518482036000860152611d9d8282611680565b91505060208301518482036020860152611db78282611680565b91505060408301518482036040860152611dd18282611d22565b91505060608301518482036060860152611deb8282611d22565b9150508091505092915050565b60006020820190508181036000830152611e128184611d80565b905092915050565b611e2381611610565b82525050565b600082825260208201905092915050565b6000611e4582611629565b611e4f8185611e29565b9350611e5f818560208601611645565b611e688161166f565b840191505092915050565b611e7c8161170f565b82525050565b611e8b81611750565b82525050565b600061010082019050611ea7600083018b611e1a565b8181036020830152611eb9818a611e3a565b9050611ec86040830189611e1a565b8181036060830152611eda8188611e3a565b9050611ee96080830187611e73565b611ef660a0830186611e82565b611f0360c0830185611e1a565b81810360e0830152611f158184611e3a565b90509998505050505050505050565b611f2d81611750565b8114611f3857600080fd5b50565b600081359050611f4a81611f24565b92915050565b600060208284031215611f6657611f656118f1565b5b6000611f7484828501611f3b565b91505092915050565b60006040820190508181036000830152611f978185611e3a565b90508181036020830152611fab8184611e3a565b90509392505050565b60058110611fc157600080fd5b50565b600081359050611fd381611fb4565b92915050565b60008060008060008060c08789031215611ff657611ff56118f1565b5b600087013567ffffffffffffffff811115612014576120136118f6565b5b61202089828a01611b8f565b965050602061203189828a01611912565b955050604087013567ffffffffffffffff811115612052576120516118f6565b5b61205e89828a01611b8f565b945050606061206f89828a01611fc4565b935050608061208089828a01611912565b92505060a087013567ffffffffffffffff8111156120a1576120a06118f6565b5b6120ad89828a01611b8f565b9150509295509295509295565b60006020820190506120cf6000830184611e1a565b92915050565b60006060820190506120ea6000830186611e82565b81810360208301526120fc8185611e3a565b905061210b6040830184611e1a565b949350505050565b7f4e487b7100000000000000000000000000000000000000000000000000000000600052602260045260246000fd5b6000600282049050600182168061215a57607f821691505b60208210810361216d5761216c612113565b5b50919050565b7f4e487b7100000000000000000000000000000000000000000000000000000000600052601160045260246000fd5b60006121ad82611610565b91506121b883611610565b92508282039050818111156121d0576121cf612173565b5b92915050565b7f4e487b7100000000000000000000000000000000000000000000000000000000600052603260045260246000fd5b600061221082611610565b91507fffffffffffffffffffffffffffffffffffffffffffffffffffffffffffffffff820361224257612241612173565b5b600182019050919050565b60008190508160005260206000209050919050565b60006020601f8301049050919050565b600082821b905092915050565b6000600883026122af7fffffffffffffffffffffffffffffffffffffffffffffffffffffffffffffffff82612272565b6122b98683612272565b95508019841693508086168417925050509392505050565b6000819050919050565b60006122f66122f16122ec84611610565b6122d1565b611610565b9050919050565b6000819050919050565b612310836122db565b61232461231c826122fd565b84845461227f565b825550505050565b600090565b61233961232c565b612344818484612307565b505050565b5b818110156123685761235d600082612331565b60018101905061234a565b5050565b601f8211156123ad5761237e8161224d565b61238784612262565b81016020851015612396578190505b6123aa6123a285612262565b830182612349565b50505b505050565b600082821c905092915050565b60006123d0600019846008026123b2565b1980831691505092915050565b60006123e983836123bf565b9150826002028217905092915050565b61240282611629565b67ffffffffffffffff81111561241b5761241a611a92565b5b6124258254612142565b61243082828561236c565b600060209050601f8311600181146124635760008415612451578287015190505b61245b85826123dd565b8655506124c3565b601f1984166124718661224d565b60005b8281101561249957848901518255600182019150602085019450602081019050612474565b868310156124b657848901516124b2601f8916826123bf565b8355505b6001600288020188555050505b505050505050565b7f6f7574206f662073746f636b0000000000000000000000000000000000000000600082015250565b6000612501600c83611e29565b915061250c826124cb565b602082019050919050565b60006020820190508181036000830152612530816124f4565b9050919050565b600061254282611610565b915061254d83611610565b925082820261255b81611610565b9150828204841483151761257257612571612173565b5b5092915050565b7f6e6f7420656e6f7567682066756e647300000000000000000000000000000000600082015250565b60006125af601083611e29565b91506125ba82612579565b602082019050919050565b600060208201905081810360008301526125de816125a2565b9050919050565b7f746578742063616e6e6f7420626520656d707479000000000000000000000000600082015250565b600061261b601483611e29565b9150612626826125e5565b602082019050919050565b6000602082019050818103600083015261264a8161260e565b9050919050565b60006060820190506126666000830186611e1a565b6126736020830185611e1a565b6126806040830184611e1a565b949350505050565b7f4e487b7100000000000000000000000000000000000000000000000000000000600052605160045260246000fdfea26469706673582212209160227dc0d668d4dca2d7dc2f558a259ac92fe1c0316f420b704fedcd632ad064736f6c634300081b0033",
  "linkReferences": {},
  "deployedLinkReferences": {}
}