{
  "_format": "hh-sol-artifact-1",
  "contractName": "Esurf",
  "sourceName": "contracts/Esurf.sol",
  "abi": [
    {
      "inputs": [
        {
          "internalType": "string",
          "name": "_name",
          "type": "string"
        },
        {
          "internalType": "uint256",
          "name": "_price",
          "type": "uint256"
        },
        {
          "internalType": "string",
          "name": "_description",
          "type": "string"
        },
        {
          "internalType": "enum Esurf.Category",
          "name": "_category",
          "type": "uint8"
        },
        {
          "internalType": "uint256",
          "name": "_stock",
          "type": "uint256"
        },
        {
          "internalType": "string",
          "name": "_image",
          "type": "string"
        }
      ],
      "name": "addProduct",
      "outputs": [
        {
          "internalType": "uint256",
          "name": "",
          "type": "uint256"
        }
      ],
      "stateMutability": "nonpayable",
      "type": "function"
    },
    {
      "inputs": [
        {
          "internalType": "uint256",
          "name": "_productId",
          "type": "uint256"
        },
        {
          "internalType": "string",
          "name": "_text",
          "type": "string"
        }
      ],
      "name": "addReview",
      "outputs": [],
      "stateMutability": "nonpayable",
      "type": "function"
    },
    {
      "inputs": [
        {
          "internalType": "uint256",
          "name": "_productId",
          "type": "uint256"
        },
        {
          "internalType": "uint256",
          "name": "_quantity",
          "type": "uint256"
        }
      ],
      "name": "buyProduct",
      "outputs": [],
      "stateMutability": "payable",
      "type": "function"
    },
    {
      "inputs": [
        {
          "internalType": "string",
          "name": "_name",
          "type": "string"
        },
        {
          "internalType": "string",
          "name": "_delivery_address",
          "type": "string"
        }
      ],
      "name": "createOrEditUserProfile",
      "outputs": [],
      "stateMutability": "nonpayable",
      "type": "function"
    },
    {
      "inputs": [],
      "name": "getAllProducts",
      "outputs": [
        {
          "components": [
            {
              "internalType": "uint256",
              "name": "id",
              "type": "uint256"
            },
            {
              "internalType": "string",
              "name": "name",
              "type": "string"
            },
            {
              "internalType": "uint256",
              "name": "price",
              "type": "uint256"
            },
            {
              "internalType": "string",
              "name": "description",
              "type": "string"
            },
            {
              "internalType": "enum Esurf.Category",
              "name": "category",
              "type": "uint8"
            },
            {
              "internalType": "address",
              "name": "seller",
              "type": "address"
            },
            {
              "internalType": "uint256",
              "name": "stock",
              "type": "uint256"
            },
            {
              "internalType": "string",
              "name": "image",
              "type": "string"
            }
          ],
          "internalType": "struct Esurf.Product[]",
          "name": "",
          "type": "tuple[]"
        }
      ],
      "stateMutability": "view",
      "type": "function"
    },
    {
      "inputs": [
        {
          "internalType": "uint256",
          "name": "_orderId",
          "type": "uint256"
        }
      ],
      "name": "getOrder",
      "outputs": [
        {
          "components": [
            {
              "internalType": "uint256",
              "name": "order_id",
              "type": "uint256"
            },
            {
              "internalType": "uint256",
              "name": "product_id",
              "type": "uint256"
            },
            {
              "internalType": "enum Esurf.OrderStatus",
              "name": "status",
              "type": "uint8"
            },
            {
              "internalType": "uint256",
              "name": "quantity",
              "type": "uint256"
            },
            {
              "internalType": "uint256",
              "name": "timestamp",
              "type": "uint256"
            }
          ],
          "internalType": "struct Esurf.Order",
          "name": "",
          "type": "tuple"
        }
      ],
      "stateMutability": "view",
      "type": "function"
    },
    {
      "inputs": [
        {
          "internalType": "uint256",
          "name": "_productId",
          "type": "uint256"
        }
      ],
      "name": "getProduct",
      "outputs": [
        {
          "components": [
            {
              "internalType": "uint256",
              "name": "id",
              "type": "uint256"
            },
            {
              "internalType": "string",
              "name": "name",
              "type": "string"
            },
            {
              "internalType": "uint256",
              "name": "price",
              "type": "uint256"
            },
            {
              "internalType": "string",
              "name": "description",
              "type": "string"
            },
            {
              "internalType": "enum Esurf.Category",
              "name": "category",
              "type": "uint8"
            },
            {
              "internalType": "address",
              "name": "seller",
              "type": "address"
            },
            {
              "internalType": "uint256",
              "name": "stock",
              "type": "uint256"
            },
            {
              "internalType": "string",
              "name": "image",
              "type": "string"
            }
          ],
          "internalType": "struct Esurf.Product",
          "name": "",
          "type": "tuple"
        }
      ],
      "stateMutability": "view",
      "type": "function"
    },
    {
      "inputs": [
        {
          "internalType": "uint256",
          "name": "_productId",
          "type": "uint256"
        }
      ],
      "name": "getProductReviews",
      "outputs": [
        {
          "components": [
            {
              "internalType": "address",
              "name": "userAddress",
              "type": "address"
            },
            {
              "internalType": "string",
              "name": "text",
              "type": "string"
            },
            {
              "internalType": "uint256",
              "name": "timestamp",
              "type": "uint256"
            }
          ],
          "internalType": "struct Esurf.Review[]",
          "name": "",
          "type": "tuple[]"
        }
      ],
      "stateMutability": "view",
      "type": "function"
    },
    {
      "inputs": [],
      "name": "getUserOrders",
      "outputs": [
        {
          "components": [
            {
              "internalType": "uint256",
              "name": "order_id",
              "type": "uint256"
            },
            {
              "internalType": "uint256",
              "name": "product_id",
              "type": "uint256"
            },
            {
              "internalType": "enum Esurf.OrderStatus",
              "name": "status",
              "type": "uint8"
            },
            {
              "internalType": "uint256",
              "name": "quantity",
              "type": "uint256"
            },
            {
              "internalType": "uint256",
              "name": "timestamp",
              "type": "uint256"
            }
          ],
          "internalType": "struct Esurf.Order[]",
          "name": "",
          "type": "tuple[]"
        }
      ],
      "stateMutability": "view",
      "type": "function"
    },
    {
      "inputs": [],
      "name": "getUserProfile",
      "outputs": [
        {
          "components": [
            {
              "internalType": "string",
              "name": "name",
              "type": "string"
            },
            {
              "internalType": "string",
              "name": "delivery_address",
              "type": "string"
            },
            {
              "internalType": "uint256[]",
              "name": "product_ids",
              "type": "uint256[]"
            },
            {
              "internalType": "uint256[]",
              "name": "order_ids",
              "type": "uint256[]"
            }
          ],
          "internalType": "struct Esurf.User",
          "name": "",
          "type": "tuple"
        }
      ],
      "stateMutability": "view",
      "type": "function"
    },
    {
      "inputs": [],
      "name": "orderCount",
      "outputs": [
        {
          "internalType": "uint256",
          "name": "",
          "type": "uint256"
        }
      ],
      "stateMutability": "view",
      "type": "function"
    },
    {
      "inputs": [
        {
          "internalType": "uint256",
          "name": "",
          "type": "uint256"
        }
      ],
      "name": "orders",
      "outputs": [
        {
          "internalType": "uint256",
          "name": "order_id",
          "type": "uint256"
        },
        {
          "internalType": "uint256",
          "name": "product_id",
          "type": "uint256"
        },
        {
          "internalType": "enum Esurf.OrderStatus",
          "name": "status",
          "type": "uint8"
        },
        {
          "internalType": "uint256",
          "name": "quantity",
          "type": "uint256"
        },
        {
          "internalType": "uint256",
          "name": "timestamp",
          "type": "uint256"
        }
      ],
      "stateMutability": "view",
      "type": "function"
    },
    {
      "inputs": [],
      "name": "productCount",
      "outputs": [
        {
          "internalType": "uint256",
          "name": "",
          "type": "uint256"
        }
      ],
      "stateMutability": "view",
      "type": "function"
    },
    {
      "inputs": [
        {
          "internalType": "uint256",
          "name": "",
          "type": "uint256"
        },
        {
          "internalType": "uint256",
          "name": "",
          "type": "uint256"
        }
      ],
      "name": "productReviews",
      "outputs": [
        {
          "internalType": "address",
          "name": "userAddress",
          "type": "address"
        },
        {
          "internalType": "string",
          "name": "text",
          "type": "string"
        },
        {
          "internalType": "uint256",
          "name": "timestamp",
          "type": "uint256"
        }
      ],
      "stateMutability": "view",
      "type": "function"
    },
    {
      "inputs": [
        {
          "internalType": "uint256",
          "name": "",
          "type": "uint256"
        }
      ],
      "name": "products",
      "outputs": [
        {
          "internalType": "uint256",
          "name": "id",
          "type": "uint256"
        },
        {
          "internalType": "string",
          "name": "name",
          "type": "string"
        },
        {
          "internalType": "uint256",
          "name": "price",
          "type": "uint256"
        },
        {
          "internalType": "string",
          "name": "description",
          "type": "string"
        },
        {
          "internalType": "enum Esurf.Category",
          "name": "category",
          "type": "uint8"
        },
        {
          "internalType": "address",
          "name": "seller",
          "type": "address"
        },
        {
          "internalType": "uint256",
          "name": "stock",
          "type": "uint256"
        },
        {
          "internalType": "string",
          "name": "image",
          "type": "string"
        }
      ],
      "stateMutability": "view",
      "type": "function"
    },
    {
      "inputs": [
        {
          "internalType": "uint256",
          "name": "_orderId",
          "type": "uint256"
        },
        {
          "internalType": "enum Esurf.OrderStatus",
          "name": "_newStatus",
          "type": "uint8"
        }
      ],
      "name": "updateOrderStatus",
      "outputs": [],
      "stateMutability": "nonpayable",
      "type": "function"
    },
    {
      "inputs": [
        {
          "internalType": "address",
          "name": "",
          "type": "address"
        }
      ],
      "name": "users",
      "outputs": [
        {
          "internalType": "string",
          "name": "name",
          "type": "string"
        },
        {
          "internalType": "string",
          "name": "delivery_address",
          "type": "string"
        }
      ],
      "stateMutability": "view",
      "type": "function"
    }
  ],
  "bytecode": "0x6080604052348015600f57600080fd5b506136988061001f6000396000f3fe6080604052600436106100fe5760003560e01c80637acc0b2011610095578063b9db15b411610064578063b9db15b414610346578063d09ef24114610383578063d4b8d708146103c0578063e0f6ef87146103fd578063f2943dce14610428576100fe565b80637acc0b201461025a578063a85c38ef1461029e578063a87430ba146102df578063aab3196d1461031d576100fe565b8063537e1872116100d1578063537e1872146101c157806353b62866146101ea5780635bb0c5d6146102065780636f61c7441461022f576100fe565b806302ee3a52146101035780631e4b919b1461012e5780632453ffa81461015957806346a4237b14610184575b600080fd5b34801561010f57600080fd5b50610118610467565b6040516101259190612381565b60405180910390f35b34801561013a57600080fd5b5061014361079c565b6040516101509190612502565b60405180910390f35b34801561016557600080fd5b5061016e610966565b60405161017b9190612533565b60405180910390f35b34801561019057600080fd5b506101ab60048036038101906101a6919061258e565b61096c565b6040516101b891906126cd565b60405180910390f35b3480156101cd57600080fd5b506101e860048036038101906101e39190612824565b610ad0565b005b61020460048036038101906101ff919061289c565b610cbe565b005b34801561021257600080fd5b5061022d600480360381019061022891906128dc565b610fc4565b005b34801561023b57600080fd5b506102446110e2565b6040516102519190612a5f565b60405180910390f35b34801561026657600080fd5b50610281600480360381019061027c919061258e565b61130c565b604051610295989796959493929190612ae9565b60405180910390f35b3480156102aa57600080fd5b506102c560048036038101906102c0919061258e565b611519565b6040516102d6959493929190612b8b565b60405180910390f35b3480156102eb57600080fd5b5061030660048036038101906103019190612c0a565b61155c565b604051610314929190612c37565b60405180910390f35b34801561032957600080fd5b50610344600480360381019061033f9190612c93565b611690565b005b34801561035257600080fd5b5061036d6004803603810190610368919061258e565b6117d1565b60405161037a9190612d91565b60405180910390f35b34801561038f57600080fd5b506103aa60048036038101906103a5919061258e565b611ab5565b6040516103b79190612e1b565b60405180910390f35b3480156103cc57600080fd5b506103e760048036038101906103e29190612e5b565b611b96565b6040516103f49190612533565b60405180910390f35b34801561040957600080fd5b50610412611d7c565b60405161041f9190612533565b60405180910390f35b34801561043457600080fd5b5061044f600480360381019061044a919061289c565b611d82565b60405161045e93929190612f3c565b60405180910390f35b6060600060045467ffffffffffffffff811115610487576104866126f9565b5b6040519080825280602002602001820160405280156104c057816020015b6104ad611f56565b8152602001906001900390816104a55790505b5090506000600190505b60045481116107945760016000828152602001908152602001600020604051806101000160405290816000820154815260200160018201805461050c90612fa9565b80601f016020809104026020016040519081016040528092919081815260200182805461053890612fa9565b80156105855780601f1061055a57610100808354040283529160200191610585565b820191906000526020600020905b81548152906001019060200180831161056857829003601f168201915b50505050508152602001600282015481526020016003820180546105a890612fa9565b80601f01602080910402602001604051908101604052809291908181526020018280546105d490612fa9565b80156106215780601f106105f657610100808354040283529160200191610621565b820191906000526020600020905b81548152906001019060200180831161060457829003601f168201915b505050505081526020016004820160009054906101000a900460ff16600481111561064f5761064e612175565b5b600481111561066157610660612175565b5b81526020016004820160019054906101000a900473ffffffffffffffffffffffffffffffffffffffff1673ffffffffffffffffffffffffffffffffffffffff1673ffffffffffffffffffffffffffffffffffffffff168152602001600582015481526020016006820180546106d590612fa9565b80601f016020809104026020016040519081016040528092919081815260200182805461070190612fa9565b801561074e5780601f106107235761010080835404028352916020019161074e565b820191906000526020600020905b81548152906001019060200180831161073157829003601f168201915b505050505081525050826001836107659190613009565b815181106107765761077561303d565b5b6020026020010181905250808061078c9061306c565b9150506104ca565b508091505090565b606060008060003373ffffffffffffffffffffffffffffffffffffffff1673ffffffffffffffffffffffffffffffffffffffff16815260200190815260200160002060030180548060200260200160405190810160405280929190818152602001828054801561082b57602002820191906000526020600020905b815481526020019060010190808311610817575b505050505090506000815167ffffffffffffffff81111561084f5761084e6126f9565b5b60405190808252806020026020018201604052801561088857816020015b610875611fc3565b81526020019060019003908161086d5790505b50905060005b825181101561095d57600360008483815181106108ae576108ad61303d565b5b602002602001015181526020019081526020016000206040518060a001604052908160008201548152602001600182015481526020016002820160009054906101000a900460ff16600381111561090857610907612175565b5b600381111561091a57610919612175565b5b8152602001600382015481526020016004820154815250508282815181106109455761094461303d565b5b6020026020010181905250808060010191505061088e565b50809250505090565b60055481565b606060026000838152602001908152602001600020805480602002602001604051908101604052809291908181526020016000905b82821015610ac557838290600052602060002090600302016040518060600160405290816000820160009054906101000a900473ffffffffffffffffffffffffffffffffffffffff1673ffffffffffffffffffffffffffffffffffffffff1673ffffffffffffffffffffffffffffffffffffffff168152602001600182018054610a2a90612fa9565b80601f0160208091040260200160405190810160405280929190818152602001828054610a5690612fa9565b8015610aa35780601f10610a7857610100808354040283529160200191610aa3565b820191906000526020600020905b815481529060010190602001808311610a8657829003601f168201915b50505050508152602001600282015481525050815260200190600101906109a1565b505050509050919050565b60008060003373ffffffffffffffffffffffffffffffffffffffff1673ffffffffffffffffffffffffffffffffffffffff168152602001908152602001600020905060008160020180549050148015610b30575060008160030180549050145b15610c94576040518060800160405280848152602001838152602001600067ffffffffffffffff811115610b6757610b666126f9565b5b604051908082528060200260200182016040528015610b955781602001602082028036833780820191505090505b508152602001600067ffffffffffffffff811115610bb657610bb56126f9565b5b604051908082528060200260200182016040528015610be45781602001602082028036833780820191505090505b508152506000803373ffffffffffffffffffffffffffffffffffffffff1673ffffffffffffffffffffffffffffffffffffffff1681526020019081526020016000206000820151816000019081610c3b9190613260565b506020820151816001019081610c519190613260565b506040820151816002019080519060200190610c6e929190612004565b506060820151816003019080519060200190610c8b929190612004565b50905050610cb9565b82816000019081610ca59190613260565b5081816001019081610cb79190613260565b505b505050565b6000600160008481526020019081526020016000209050610ce434826002015484611e71565b8181600501541015610d2b576040517f08c379a0000000000000000000000000000000000000000000000000000000008152600401610d229061337e565b60405180910390fd5b818160020154610d3b919061339e565b341015610d7d576040517f08c379a0000000000000000000000000000000000000000000000000000000008152600401610d749061342c565b60405180910390fd5b81816005016000828254610d919190613009565b9250508190555060056000815480929190610dab9061306c565b919050555060006040518060a00160405280600554815260200185815260200160006003811115610ddf57610dde612175565b5b815260200184815260200142815250905080600360006005548152602001908152602001600020600082015181600001556020820151816001015560408201518160020160006101000a81548160ff02191690836003811115610e4557610e44612175565b5b021790555060608201518160030155608082015181600401559050506000803373ffffffffffffffffffffffffffffffffffffffff1673ffffffffffffffffffffffffffffffffffffffff16815260200190815260200160002060030160055490806001815401808255809150506001900390600052602060002001600090919091909150558160040160019054906101000a900473ffffffffffffffffffffffffffffffffffffffff1673ffffffffffffffffffffffffffffffffffffffff166108fc848460020154610f19919061339e565b9081150290604051600060405180830381858888f19350505050158015610f44573d6000803e3d6000fd5b50828260020154610f55919061339e565b341115610fbe573373ffffffffffffffffffffffffffffffffffffffff166108fc848460020154610f86919061339e565b34610f919190613009565b9081150290604051600060405180830381858888f19350505050158015610fbc573d6000803e3d6000fd5b505b50505050565b6000815111611008576040517f08c379a0000000000000000000000000000000000000000000000000000000008152600401610fff90613498565b60405180910390fd5b6002600083815260200190815260200160002060405180606001604052803373ffffffffffffffffffffffffffffffffffffffff16815260200183815260200142815250908060018154018082558091505060019003906000526020600020906003020160009091909190915060008201518160000160006101000a81548173ffffffffffffffffffffffffffffffffffffffff021916908373ffffffffffffffffffffffffffffffffffffffff16021790555060208201518160010190816110d19190613260565b506040820151816002015550505050565b6110ea612051565b6000803373ffffffffffffffffffffffffffffffffffffffff1673ffffffffffffffffffffffffffffffffffffffff16815260200190815260200160002060405180608001604052908160008201805461114390612fa9565b80601f016020809104026020016040519081016040528092919081815260200182805461116f90612fa9565b80156111bc5780601f10611191576101008083540402835291602001916111bc565b820191906000526020600020905b81548152906001019060200180831161119f57829003601f168201915b505050505081526020016001820180546111d590612fa9565b80601f016020809104026020016040519081016040528092919081815260200182805461120190612fa9565b801561124e5780601f106112235761010080835404028352916020019161124e565b820191906000526020600020905b81548152906001019060200180831161123157829003601f168201915b50505050508152602001600282018054806020026020016040519081016040528092919081815260200182805480156112a657602002820191906000526020600020905b815481526020019060010190808311611292575b50505050508152602001600382018054806020026020016040519081016040528092919081815260200182805480156112fe57602002820191906000526020600020905b8154815260200190600101908083116112ea575b505050505081525050905090565b600160205280600052604060002060009150905080600001549080600101805461133590612fa9565b80601f016020809104026020016040519081016040528092919081815260200182805461136190612fa9565b80156113ae5780601f10611383576101008083540402835291602001916113ae565b820191906000526020600020905b81548152906001019060200180831161139157829003601f168201915b5050505050908060020154908060030180546113c990612fa9565b80601f01602080910402602001604051908101604052809291908181526020018280546113f590612fa9565b80156114425780601f1061141757610100808354040283529160200191611442565b820191906000526020600020905b81548152906001019060200180831161142557829003601f168201915b5050505050908060040160009054906101000a900460ff16908060040160019054906101000a900473ffffffffffffffffffffffffffffffffffffffff169080600501549080600601805461149690612fa9565b80601f01602080910402602001604051908101604052809291908181526020018280546114c290612fa9565b801561150f5780601f106114e45761010080835404028352916020019161150f565b820191906000526020600020905b8154815290600101906020018083116114f257829003601f168201915b5050505050905088565b60036020528060005260406000206000915090508060000154908060010154908060020160009054906101000a900460ff16908060030154908060040154905085565b600060205280600052604060002060009150905080600001805461157f90612fa9565b80601f01602080910402602001604051908101604052809291908181526020018280546115ab90612fa9565b80156115f85780601f106115cd576101008083540402835291602001916115f8565b820191906000526020600020905b8154815290600101906020018083116115db57829003601f168201915b50505050509080600101805461160d90612fa9565b80601f016020809104026020016040519081016040528092919081815260200182805461163990612fa9565b80156116865780601f1061165b57610100808354040283529160200191611686565b820191906000526020600020905b81548152906001019060200180831161166957829003601f168201915b5050505050905082565b6000821180156116a257506005548211155b6116e1576040517f08c379a00000000000000000000000000000000000000000000000000000000081526004016116d890613504565b60405180910390fd5b60006003600084815260200190815260200160002090503373ffffffffffffffffffffffffffffffffffffffff16600160008360010154815260200190815260200160002060040160019054906101000a900473ffffffffffffffffffffffffffffffffffffffff1673ffffffffffffffffffffffffffffffffffffffff16146117a0576040517f08c379a000000000000000000000000000000000000000000000000000000000815260040161179790613570565b60405180910390fd5b818160020160006101000a81548160ff021916908360038111156117c7576117c6612175565b5b0217905550505050565b6117d9611f56565b6000821180156117eb57506004548211155b61182a576040517f08c379a0000000000000000000000000000000000000000000000000000000008152600401611821906135dc565b60405180910390fd5b60016000838152602001908152602001600020604051806101000160405290816000820154815260200160018201805461186390612fa9565b80601f016020809104026020016040519081016040528092919081815260200182805461188f90612fa9565b80156118dc5780601f106118b1576101008083540402835291602001916118dc565b820191906000526020600020905b8154815290600101906020018083116118bf57829003601f168201915b50505050508152602001600282015481526020016003820180546118ff90612fa9565b80601f016020809104026020016040519081016040528092919081815260200182805461192b90612fa9565b80156119785780601f1061194d57610100808354040283529160200191611978565b820191906000526020600020905b81548152906001019060200180831161195b57829003601f168201915b505050505081526020016004820160009054906101000a900460ff1660048111156119a6576119a5612175565b5b60048111156119b8576119b7612175565b5b81526020016004820160019054906101000a900473ffffffffffffffffffffffffffffffffffffffff1673ffffffffffffffffffffffffffffffffffffffff1673ffffffffffffffffffffffffffffffffffffffff16815260200160058201548152602001600682018054611a2c90612fa9565b80601f0160208091040260200160405190810160405280929190818152602001828054611a5890612fa9565b8015611aa55780601f10611a7a57610100808354040283529160200191611aa5565b820191906000526020600020905b815481529060010190602001808311611a8857829003601f168201915b5050505050815250509050919050565b611abd611fc3565b600082118015611acf57506005548211155b611b0e576040517f08c379a0000000000000000000000000000000000000000000000000000000008152600401611b0590613504565b60405180910390fd5b600360008381526020019081526020016000206040518060a001604052908160008201548152602001600182015481526020016002820160009054906101000a900460ff166003811115611b6557611b64612175565b5b6003811115611b7757611b76612175565b5b8152602001600382015481526020016004820154815250509050919050565b600060046000815480929190611bab9061306c565b91905055506040518061010001604052806004548152602001888152602001878152602001868152602001856004811115611be957611be8612175565b5b81526020013373ffffffffffffffffffffffffffffffffffffffff16815260200184815260200183815250600160006004548152602001908152602001600020600082015181600001556020820151816001019081611c489190613260565b50604082015181600201556060820151816003019081611c689190613260565b5060808201518160040160006101000a81548160ff02191690836004811115611c9457611c93612175565b5b021790555060a08201518160040160016101000a81548173ffffffffffffffffffffffffffffffffffffffff021916908373ffffffffffffffffffffffffffffffffffffffff16021790555060c0820151816005015560e0820151816006019081611cff9190613260565b509050506000803373ffffffffffffffffffffffffffffffffffffffff1673ffffffffffffffffffffffffffffffffffffffff168152602001908152602001600020600201600454908060018154018082558091505060019003906000526020600020016000909190919091505560045490509695505050505050565b60045481565b60026020528160005260406000208181548110611d9e57600080fd5b9060005260206000209060030201600091509150508060000160009054906101000a900473ffffffffffffffffffffffffffffffffffffffff1690806001018054611de890612fa9565b80601f0160208091040260200160405190810160405280929190818152602001828054611e1490612fa9565b8015611e615780601f10611e3657610100808354040283529160200191611e61565b820191906000526020600020905b815481529060010190602001808311611e4457829003601f168201915b5050505050908060020154905083565b611f0b838383604051602401611e89939291906135fc565b6040516020818303038152906040527fd1ed7a3c000000000000000000000000000000000000000000000000000000007bffffffffffffffffffffffffffffffffffffffffffffffffffffffff19166020820180517bffffffffffffffffffffffffffffffffffffffffffffffffffffffff8381831617835250505050611f10565b505050565b611f2781611f1f611f2a611f4b565b63ffffffff16565b50565b60006a636f6e736f6c652e6c6f679050600080835160208501845afa505050565b612079819050919050565b6040518061010001604052806000815260200160608152602001600081526020016060815260200160006004811115611f9257611f91612175565b5b8152602001600073ffffffffffffffffffffffffffffffffffffffff16815260200160008152602001606081525090565b6040518060a00160405280600081526020016000815260200160006003811115611ff057611fef612175565b5b815260200160008152602001600081525090565b828054828255906000526020600020908101928215612040579160200282015b8281111561203f578251825591602001919060010190612024565b5b50905061204d9190612083565b5090565b6040518060800160405280606081526020016060815260200160608152602001606081525090565b612081613633565b565b5b8082111561209c576000816000905550600101612084565b5090565b600081519050919050565b600082825260208201905092915050565b6000819050602082019050919050565b6000819050919050565b6120df816120cc565b82525050565b600081519050919050565b600082825260208201905092915050565b60005b8381101561211f578082015181840152602081019050612104565b60008484015250505050565b6000601f19601f8301169050919050565b6000612147826120e5565b61215181856120f0565b9350612161818560208601612101565b61216a8161212b565b840191505092915050565b7f4e487b7100000000000000000000000000000000000000000000000000000000600052602160045260246000fd5b600581106121b5576121b4612175565b5b50565b60008190506121c6826121a4565b919050565b60006121d6826121b8565b9050919050565b6121e6816121cb565b82525050565b600073ffffffffffffffffffffffffffffffffffffffff82169050919050565b6000612217826121ec565b9050919050565b6122278161220c565b82525050565b60006101008301600083015161224660008601826120d6565b506020830151848203602086015261225e828261213c565b915050604083015161227360408601826120d6565b506060830151848203606086015261228b828261213c565b91505060808301516122a060808601826121dd565b5060a08301516122b360a086018261221e565b5060c08301516122c660c08601826120d6565b5060e083015184820360e08601526122de828261213c565b9150508091505092915050565b60006122f7838361222d565b905092915050565b6000602082019050919050565b6000612317826120a0565b61232181856120ab565b935083602082028501612333856120bc565b8060005b8581101561236f578484038952815161235085826122eb565b945061235b836122ff565b925060208a01995050600181019050612337565b50829750879550505050505092915050565b6000602082019050818103600083015261239b818461230c565b905092915050565b600081519050919050565b600082825260208201905092915050565b6000819050602082019050919050565b600481106123e0576123df612175565b5b50565b60008190506123f1826123cf565b919050565b6000612401826123e3565b9050919050565b612411816123f6565b82525050565b60a08201600082015161242d60008501826120d6565b50602082015161244060208501826120d6565b5060408201516124536040850182612408565b50606082015161246660608501826120d6565b50608082015161247960808501826120d6565b50505050565b600061248b8383612417565b60a08301905092915050565b6000602082019050919050565b60006124af826123a3565b6124b981856123ae565b93506124c4836123bf565b8060005b838110156124f55781516124dc888261247f565b97506124e783612497565b9250506001810190506124c8565b5085935050505092915050565b6000602082019050818103600083015261251c81846124a4565b905092915050565b61252d816120cc565b82525050565b60006020820190506125486000830184612524565b92915050565b6000604051905090565b600080fd5b600080fd5b61256b816120cc565b811461257657600080fd5b50565b60008135905061258881612562565b92915050565b6000602082840312156125a4576125a3612558565b5b60006125b284828501612579565b91505092915050565b600081519050919050565b600082825260208201905092915050565b6000819050602082019050919050565b60006060830160008301516125ff600086018261221e565b5060208301518482036020860152612617828261213c565b915050604083015161262c60408601826120d6565b508091505092915050565b600061264383836125e7565b905092915050565b6000602082019050919050565b6000612663826125bb565b61266d81856125c6565b93508360208202850161267f856125d7565b8060005b858110156126bb578484038952815161269c8582612637565b94506126a78361264b565b925060208a01995050600181019050612683565b50829750879550505050505092915050565b600060208201905081810360008301526126e78184612658565b905092915050565b600080fd5b600080fd5b7f4e487b7100000000000000000000000000000000000000000000000000000000600052604160045260246000fd5b6127318261212b565b810181811067ffffffffffffffff821117156127505761274f6126f9565b5b80604052505050565b600061276361254e565b905061276f8282612728565b919050565b600067ffffffffffffffff82111561278f5761278e6126f9565b5b6127988261212b565b9050602081019050919050565b82818337600083830152505050565b60006127c76127c284612774565b612759565b9050828152602081018484840111156127e3576127e26126f4565b5b6127ee8482856127a5565b509392505050565b600082601f83011261280b5761280a6126ef565b5b813561281b8482602086016127b4565b91505092915050565b6000806040838503121561283b5761283a612558565b5b600083013567ffffffffffffffff8111156128595761285861255d565b5b612865858286016127f6565b925050602083013567ffffffffffffffff8111156128865761288561255d565b5b612892858286016127f6565b9150509250929050565b600080604083850312156128b3576128b2612558565b5b60006128c185828601612579565b92505060206128d285828601612579565b9150509250929050565b600080604083850312156128f3576128f2612558565b5b600061290185828601612579565b925050602083013567ffffffffffffffff8111156129225761292161255d565b5b61292e858286016127f6565b9150509250929050565b600081519050919050565b600082825260208201905092915050565b6000819050602082019050919050565b600061297083836120d6565b60208301905092915050565b6000602082019050919050565b600061299482612938565b61299e8185612943565b93506129a983612954565b8060005b838110156129da5781516129c18882612964565b97506129cc8361297c565b9250506001810190506129ad565b5085935050505092915050565b60006080830160008301518482036000860152612a04828261213c565b91505060208301518482036020860152612a1e828261213c565b91505060408301518482036040860152612a388282612989565b91505060608301518482036060860152612a528282612989565b9150508091505092915050565b60006020820190508181036000830152612a7981846129e7565b905092915050565b600082825260208201905092915050565b6000612a9d826120e5565b612aa78185612a81565b9350612ab7818560208601612101565b612ac08161212b565b840191505092915050565b612ad4816121cb565b82525050565b612ae38161220c565b82525050565b600061010082019050612aff600083018b612524565b8181036020830152612b11818a612a92565b9050612b206040830189612524565b8181036060830152612b328188612a92565b9050612b416080830187612acb565b612b4e60a0830186612ada565b612b5b60c0830185612524565b81810360e0830152612b6d8184612a92565b90509998505050505050505050565b612b85816123f6565b82525050565b600060a082019050612ba06000830188612524565b612bad6020830187612524565b612bba6040830186612b7c565b612bc76060830185612524565b612bd46080830184612524565b9695505050505050565b612be78161220c565b8114612bf257600080fd5b50565b600081359050612c0481612bde565b92915050565b600060208284031215612c2057612c1f612558565b5b6000612c2e84828501612bf5565b91505092915050565b60006040820190508181036000830152612c518185612a92565b90508181036020830152612c658184612a92565b90509392505050565b60048110612c7b57600080fd5b50565b600081359050612c8d81612c6e565b92915050565b60008060408385031215612caa57612ca9612558565b5b6000612cb885828601612579565b9250506020612cc985828601612c7e565b9150509250929050565b600061010083016000830151612cec60008601826120d6565b5060208301518482036020860152612d04828261213c565b9150506040830151612d1960408601826120d6565b5060608301518482036060860152612d31828261213c565b9150506080830151612d4660808601826121dd565b5060a0830151612d5960a086018261221e565b5060c0830151612d6c60c08601826120d6565b5060e083015184820360e0860152612d84828261213c565b9150508091505092915050565b60006020820190508181036000830152612dab8184612cd3565b905092915050565b60a082016000820151612dc960008501826120d6565b506020820151612ddc60208501826120d6565b506040820151612def6040850182612408565b506060820151612e0260608501826120d6565b506080820151612e1560808501826120d6565b50505050565b600060a082019050612e306000830184612db3565b92915050565b60058110612e4357600080fd5b50565b600081359050612e5581612e36565b92915050565b60008060008060008060c08789031215612e7857612e77612558565b5b600087013567ffffffffffffffff811115612e9657612e9561255d565b5b612ea289828a016127f6565b9650506020612eb389828a01612579565b955050604087013567ffffffffffffffff811115612ed457612ed361255d565b5b612ee089828a016127f6565b9450506060612ef189828a01612e46565b9350506080612f0289828a01612579565b92505060a087013567ffffffffffffffff811115612f2357612f2261255d565b5b612f2f89828a016127f6565b9150509295509295509295565b6000606082019050612f516000830186612ada565b8181036020830152612f638185612a92565b9050612f726040830184612524565b949350505050565b7f4e487b7100000000000000000000000000000000000000000000000000000000600052602260045260246000fd5b60006002820490506001821680612fc157607f821691505b602082108103612fd457612fd3612f7a565b5b50919050565b7f4e487b7100000000000000000000000000000000000000000000000000000000600052601160045260246000fd5b6000613014826120cc565b915061301f836120cc565b925082820390508181111561303757613036612fda565b5b92915050565b7f4e487b7100000000000000000000000000000000000000000000000000000000600052603260045260246000fd5b6000613077826120cc565b91507fffffffffffffffffffffffffffffffffffffffffffffffffffffffffffffffff82036130a9576130a8612fda565b5b600182019050919050565b60008190508160005260206000209050919050565b60006020601f8301049050919050565b600082821b905092915050565b6000600883026131167fffffffffffffffffffffffffffffffffffffffffffffffffffffffffffffffff826130d9565b61312086836130d9565b95508019841693508086168417925050509392505050565b6000819050919050565b600061315d613158613153846120cc565b613138565b6120cc565b9050919050565b6000819050919050565b61317783613142565b61318b61318382613164565b8484546130e6565b825550505050565b600090565b6131a0613193565b6131ab81848461316e565b505050565b5b818110156131cf576131c4600082613198565b6001810190506131b1565b5050565b601f821115613214576131e5816130b4565b6131ee846130c9565b810160208510156131fd578190505b613211613209856130c9565b8301826131b0565b50505b505050565b600082821c905092915050565b600061323760001984600802613219565b1980831691505092915050565b60006132508383613226565b9150826002028217905092915050565b613269826120e5565b67ffffffffffffffff811115613282576132816126f9565b5b61328c8254612fa9565b6132978282856131d3565b600060209050601f8311600181146132ca57600084156132b8578287015190505b6132c28582613244565b86555061332a565b601f1984166132d8866130b4565b60005b82811015613300578489015182556001820191506020850194506020810190506132db565b8683101561331d5784890151613319601f891682613226565b8355505b6001600288020188555050505b505050505050565b7f6f7574206f662073746f636b0000000000000000000000000000000000000000600082015250565b6000613368600c83612a81565b915061337382613332565b602082019050919050565b600060208201905081810360008301526133978161335b565b9050919050565b60006133a9826120cc565b91506133b4836120cc565b92508282026133c2816120cc565b915082820484148315176133d9576133d8612fda565b5b5092915050565b7f6e6f7420656e6f7567682066756e647300000000000000000000000000000000600082015250565b6000613416601083612a81565b9150613421826133e0565b602082019050919050565b6000602082019050818103600083015261344581613409565b9050919050565b7f746578742063616e6e6f7420626520656d707479000000000000000000000000600082015250565b6000613482601483612a81565b915061348d8261344c565b602082019050919050565b600060208201905081810360008301526134b181613475565b9050919050565b7f696e76616c6964206f7264657200000000000000000000000000000000000000600082015250565b60006134ee600d83612a81565b91506134f9826134b8565b602082019050919050565b6000602082019050818103600083015261351d816134e1565b9050919050565b7f796f75277265206e6f7420612073656c6c657200000000000000000000000000600082015250565b600061355a601383612a81565b915061356582613524565b602082019050919050565b600060208201905081810360008301526135898161354d565b9050919050565b7f696e76616c69642070726f647563740000000000000000000000000000000000600082015250565b60006135c6600f83612a81565b91506135d182613590565b602082019050919050565b600060208201905081810360008301526135f5816135b9565b9050919050565b60006060820190506136116000830186612524565b61361e6020830185612524565b61362b6040830184612524565b949350505050565b7f4e487b7100000000000000000000000000000000000000000000000000000000600052605160045260246000fdfea26469706673582212208bea87a9836b4b59c472a82e29eec13ab6ff651f721b6c4b6950f402b41f820d64736f6c634300081b0033",
  "linkReferences": {},
  "deployedLinkReferences": {}
}